S01500004469676974616C2054696D65722E7372656330
S11300000C942A000C943F000C943F000C943F0085
S11300100C943F000C943F000C943F000C943F0060
S11300200C943F000C943F000C943F000C943F0050
S11300300C943F000C943F000C943F000C943F0040
S11300400C943F000C943F000C943F000C943F0030
S11300500C943F0011241FBECFE5D8E0DEBFCDBF16
S113006010E0A0E6B0E0EAEDFEE002C005900D92DB
S1130070AC3EB107D9F70E9455040C946B070C945D
S11300800000FF920F931F93CF93DF93CDB7DEB79A
S1130090AA970FB6F894DEBF0FBECDBF00E084E090
S11300A06894FF24F2F807C1402F50E0212F30E07C
S11300B0FA01EE0FFF1FEE0FFF1FEE0FFF1FE41BF1
S11300C0F50BE20FF31FEE0FFF1FEE0FFF1FEA55B4
S11300D0FF4F9081953008F0E5C0FA01EE0FFF1F45
S11300E0EE0FFF1FEE0FFF1FE41BF50BE20FF31FD4
S11300F0EE0FFF1FEE0FFF1FEA55FF4FA181A8303F
S113010008F0D2C0FA01EE0FFF1FEE0FFF1FEE0F33
S1130110FF1FE41BF50BE20FF31FEE0FFF1FEE0FA3
S1130120FF1FEA55FF4FB281B23008F0C0C0F90199
S1130130EE0FFF1FE20FF31F85E1849FB001859F3F
S1130140700D1124E60FF71F61E070E06C0F7D1F46
S1130150E60FF71F9083A183BB2309F446C0B13097
S113016009F084C0FA01EE0FFF1FEE0FFF1FEE0F20
S1130170FF1FE41BF50BE20FF31FEE0FFF1FEE0F43
S1130180FF1FEA55FF4F83818823C9F0813009F0AE
S11301906DC0F901EE0FFF1FE20FF31F65E1649FCD
S11301A0C001659F900D1124E80FF91F81E090E0D4
S11301B08C0F9D1FE80FF91F83E0828357C0F9015C
S11301C0EE0FFF1FE20FF31F65E1649FC001659FFF
S11301D0900D1124E80FF91F61E070E06C0F7D1F92
S11301E0E60FF71F82E0828341C0FA01EE0FFF1F82
S11301F0EE0FFF1FEE0FFF1FE41BF50BE20FF31FC3
S1130200EE0FFF1FEE0FFF1FEA55FF4F8381882378
S1130210C1F0813059F5F901EE0FFF1FE20FF31F12
S113022065E1649FC001659F900D1124E80FF91FDB
S113023081E090E08C0F9D1FE80FF91F82E082831C
S113024015C0F901EE0FFF1FE20FF31F65E1649F74
S1130250C001659F900D1124E80FF91F61E070E063
S11302606C0F7D1FE60FF71F83E08283C901880F9F
S1130270991F280F391F65E1649FC001659F900D88
S11302801124820F931F21E030E02C0F3D1F820FB9
S1130290931F0E94BD041F5F01C010E0173008F4D3
S11302A003CF08C0F12C06C0FF24F39403C0689464
S11302B0FF24F1F80F5F023080F3843021F00F2E19
S11302C0F5E0FF2EF02D8F2DAA960FB6F894DEBF21
S11302D00FBECDBFDF91CF911F910F91FF90089575
S11302E01F93CF93DF93833008F08AC06A3008F0FD
S11302F08AC0162FD82FC0E084E07DC06D2F70E037
S11303002C2F30E0FB01EE0FFF1FEE0FFF1FEE0F4F
S1130310FF1FE61BF70BE20FF31FEE0FFF1FEE0F9D
S1130320FF1FEA55FF4F9281992351F1913009F053
S113033061C0812F90E0FC01EE0FFF1FEE0FFF1F45
S1130340EE0FFF1FE81BF90BE05AFF4FE20FF31FFC
S11303504081FB01EE0FFF1FEE0FFF1FEE0FFF1F8B
S1130360E61BF70BE20FF31FEE0FFF1FEE0FFF1F4D
S1130370EA55FF4F4383618180810E9468023AC03D
S1130380812F90E0FC01EE0FFF1FEE0FFF1FEE0F19
S1130390FF1FE81BF90BE05AFF4FE20FF31F8081A8
S11303A0FB01EE0FFF1FEE0FFF1FEE0FFF1FE61BFB
S11303B0F70BE20FF31FEE0FFF1FEE0FFF1FEA55BF
S11303C0FF4F838341E0811140E0FB01EE0FFF1FEB
S11303D0EE0FFF1FEE0FFF1FE61BF70BE20FF31FDD
S11303E0EE0FFF1FEE0FFF1FEA55FF4F6181808163
S11303F00E946802CF5FC73008F480CF94E005C044
S113040084E097E002C084E098E0843009F096E04C
S1130410892FDF91CF911F9108951F93CF93DF937D
S113042000D0CDB7DEB7AC011A82198284369105AB
S113043008F047C010E02BC09A01ADECBCEC0E9460
S11304405C079695879596958795969587959C01D3
S1130450220F331F880F991F880F991F880F991F28
S1130460820F931F9A01281B390BE1E0F0E0EC0F97
S1130470FD1FE10FF11D20831F5F9A010E945C079D
S1130480AC01569547955695479556954795411510
S1130490510591F64930510550F4698180E00E947C
S11304A070016A8181E00E94700184E00BC06A815E
S11304B080E00E947001698181E00E94700184E003
S11304C001C088E00F900F90DF91CF911F910895A4
S11304D0853008F087C0683008F086C0423008F0E4
S11304E085C0813031F138F0823009F440C0833066
S11304F009F45BC07DC0442379F0413009F07AC02F
S11305002BB381E090E002C0880F991F6A95E2F74F
S1130510822B8BBB84E008952BB381E090E002C072
S1130520880F991F6A95E2F7809582238BBB84E03C
S11305300895442379F0413009F05EC028B381E086
S113054090E002C0880F991F6A95E2F7822B88BB5E
S113055084E0089528B381E090E002C0880F991FD9
S11305606A95E2F78095822388BB84E0089544234A
S113057079F0413009F042C025B381E090E002C037
S1130580880F991F6A95E2F7822B85BB84E0089552
S113059025B381E090E002C0880F991F6A95E2F7C5
S11305A08095822385BB84E00895442371F0413013
S11305B039F522B381E090E002C0880F991F6A9553
S11305C0E2F7822B82BB84E0089522B381E090E0BD
S11305D002C0880F991F6A95E2F78095822382BB37
S11305E084E0089580E0089581E0089582E008950C
S11305F084E0089584E0089584E0089584E00895F3
S113060084E008958530E8F56830E8F54115510532
S1130610E1F1813091F028F08230D9F0833029F172
S113062036C089B390E002C0959587956A95E2F744
S11306308170FA01808384E0089586B390E002C05B
S1130640959587956A95E2F78170FA01808384E035
S1130650089583B390E002C0959587956A95E2F773
S11306608170FA01808384E0089580B390E002C031
S1130670959587956A95E2F78170FA01808384E005
S1130680089580E0089581E0089585E0089584E068
S113069008951F93CF93DF9300D01F92CDB7DEB799
S11306A010E044E089C0212F30E0F901EE0FFF1F74
S11306B0EE0FFF1FE252FF4F8081853008F081C0AA
S11306C0F901EE0FFF1FEE0FFF1FE252FF4F618192
S11306D0683008F078C0F901EE0FFF1FEE0FFF1F1E
S11306E0E252FF4F9281923008F06FC0F901EE0F91
S11306F0FF1FEE0FFF1FE252FF4F5381523008F0ED
S113070066C0F901EE0FFF1FE20FF31FA1E0B0E096
S1130710AC0FBD1FEA0FFB1F808361839923F1F0A7
S11307209130D9F5552361F05130B9F5F901EE0F47
S1130730FF1FE20FF31FEA0FFB1F83E082832DC02C
S1130740F901EE0FFF1FE20FF31F81E090E08C0F21
S11307509D1FE80FF91F82E082831FC0552381F09B
S11307605130D9F4F901EE0FFF1FE20FF31FA1E09E
S1130770B0E0AC0FBD1FEA0FFB1F82E082830DC007
S1130780F901EE0FFF1FE20FF31F81E090E08C0FE1
S11307909D1FE80FF91F83E08283C901880F991F09
S11307A0820F931FA1E0B0E0AC0FBD1F8A0F9B1F07
S11307B00E94BD04482F1F5F112309F474CF84E005
S11307C007C080E005C081E003C082E001C083E08F
S11307D0443009F085E00F900F900F90DF91CF9196
S11307E01F910895823008F05AC0623008F059C051
S11307F0613041F590E0FC01EE0FFF1FEE0FFF1F8B
S1130800E252FF4F2281222381F0213009F041C0BE
S1130810880F991F880F991FFC01E252FF4F6181D5
S113082041E080810E94680237C0880F991F880FB9
S1130830991FFC01E252FF4F618140E080810E94D8
S113084068022AC090E0FC01EE0FFF1FEE0FFF1FAD
S1130850E252FF4F2281222379F02130E1F4880F04
S1130860991F880F991FFC01E252FF4F618140E0FC
S113087080810E94680210C0880F991F880F991FF9
S1130880FC01E252FF4F618141E080810E946802D5
S113089003C084E001C084E0843029F4089587E033
S11308A0089583E0089586E00895CF93DF9300D000
S11308B01F92CDB7DEB70E9449030E9489060E94A9
S11308C0410019821A821B8210E0BE016F5F7F4FC4
S11308D080E00E940C07BE016E5F7F4F81E00E94A2
S11308E00C07BE016D5F7F4F82E00E940C07898177
S11308F08130A1F460E080E00E94F203133608F432
S11309001F5F812F90E00E940D022FE986E891E09D
S1130910215080409040E1F700C000008A8181307E
S113092079F411111150812F90E00E940D022FE9EA
S113093086E891E0215080409040E1F700C000003B
S11309408B81813011F611C011111150812F90E06B
S11309500E940D022FE986E891E0215080409040EA
S1130960E1F700C00000015001C0012F0111ECCFDC
S113097061E080E00E94F203A8CFFC018081853011
S113098008F0B7C19181983008F0B5C122812430B4
S113099008F0B3C1813009F471C038F0823009F431
S11309A0D6C0833009F43CC1AAC1213009F44DC03A
S11309B0A0F1223019F02330C9F0A3C14AB321E0D9
S11309C030E0B90102C0660F771F9A95E2F7CB01B8
S11309D0842B8ABB8BB3018002C0220F331F0A947D
S11309E0E2F7209528232BBB84E008954AB321E045
S11309F030E0B90102C0660F771F9A95E2F7CB0188
S1130A00842B8ABB8BB3018002C0220F331F0A944C
S1130A10E2F7282B2BBB84E008954AB321E030E0B1
S1130A20B90102C0660F771F9A95E2F7CB01809552
S1130A3084238ABB8BB3018002C0220F331F0A9424
S1130A40E2F7282B2BBB84E008954AB321E030E081
S1130A50B90102C0660F771F9A95E2F7CB01809522
S1130A6084238ABB8BB3018002C0220F331F0A94F4
S1130A70E2F7209528232BBB84E00895213009F464
S1130A804DC0A0F1223019F02330C9F03CC147B366
S1130A9021E030E0B90102C0660F771F9A95E2F7B2
S1130AA0CB01842B87BB88B3018002C0220F331F84
S1130AB00A94E2F72095282328BB84E0089547B3DD
S1130AC021E030E0B90102C0660F771F9A95E2F782
S1130AD0CB01842B87BB88B3018002C0220F331F54
S1130AE00A94E2F7282B28BB84E0089547B321E059
S1130AF030E0B90102C0660F771F9A95E2F7CB0187
S1130B008095842387BB88B3018002C0220F331FE2
S1130B100A94E2F7282B28BB84E0089547B321E028
S1130B2030E0B90102C0660F771F9A95E2F7CB0156
S1130B308095842387BB88B3018002C0220F331FB2
S1130B400A94E2F72095282328BB84E008952130F5
S1130B5009F44DC0A0F1223019F02330C9F0D5C0FA
S1130B6044B321E030E0B90102C0660F771F9A95C3
S1130B70E2F7CB01842B84BB85B3018002C0220F32
S1130B80331F0A94E2F72095282325BB84E00895B7
S1130B9044B321E030E0B90102C0660F771F9A9593
S1130BA0E2F7CB01842B84BB85B3018002C0220F02
S1130BB0331F0A94E2F7282B25BB84E0089544B33D
S1130BC021E030E0B90102C0660F771F9A95E2F781
S1130BD0CB018095842384BB85B3018002C0220F9E
S1130BE0331F0A94E2F7282B25BB84E0089544B30D
S1130BF021E030E0B90102C0660F771F9A95E2F751
S1130C00CB018095842384BB85B3018002C0220F6D
S1130C10331F0A94E2F72095282325BB84E0089526
S1130C20213009F44DC0A0F1223019F02330C9F06D
S1130C306EC041B321E030E0B90102C0660F771FF6
S1130C409A95E2F7CB01842B81BB82B3018002C069
S1130C50220F331F0A94E2F72095282322BB84E055
S1130C60089541B321E030E0B90102C0660F771F57
S1130C709A95E2F7CB01842B81BB82B3018002C039
S1130C80220F331F0A94E2F7282B22BB84E0089535
S1130C9041B321E030E0B90102C0660F771F9A9595
S1130CA0E2F7CB018095842381BB82B3018002C02B
S1130CB0220F331F0A94E2F7282B22BB84E0089505
S1130CC041B321E030E0B90102C0660F771F9A9565
S1130CD0E2F7CB018095842381BB82B3018002C0FB
S1130CE0220F331F0A94E2F72095282322BB84E0C5
S1130CF0089580E0089581E0089583E0089584E0F4
S1130D00089584E0089584E0089584E0089584E0DB
S1130D1008951F93CF93DF93CDB7DEB729970FB60E
S1130D20F894DEBF0FBECDBF10E084E05DC0212F7C
S1130D3030E0F901EE0FFF1FE20FF31FEE51FF4FFA
S1130D404081453008F055C0F901EE0FFF1FE20F56
S1130D50F31FEE51FF4F5181583008F04CC0F90198
S1130D60EE0FFF1FE20FF31FEE51FF4F92819230FF
S1130D7008F043C0F901EE0FFF1FE20FF31F61E01B
S1130D8070E06C0F7D1FE60FF71F4083518399239A
S1130D9019F0913071F01AC0F901EE0FFF1FE20F44
S1130DA0F31F81E090E08C0F9D1FE80FF91F128262
S1130DB00DC0F901EE0FFF1FE20FF31F61E070E0B9
S1130DC06C0F7D1FE60FF71F81E08283C901880F36
S1130DD0991F820F931F21E030E02C0F3D1F820FDB
S1130DE0931F0E94BD041F5F133008F4A0CF93E04B
S1130DF005C090E003C091E001C092E0843009F0A6
S1130E0094E0892F29960FB6F894DEBF0FBECDBFAC
S1130E10DF91CF911F910895EF92FF920F931F934B
S1130E20CF93DF931F92CDB7DEB7843098F5611569
S1130E30710599F17B0190E08C01000F111F080FDF
S1130E40191F0E511F4FF8016181AE014F5F5F4FB3
S1130E5080810E940203982FF8018281882319F06F
S1130E60813069F01DC08981813021F4F70110823D
S1130E7083E017C081E0F701808383E012C0898199
S1130E80813021F4F701808383E00BC0F7011082E5
S1130E9083E007C094E085E004C094E087E001C0EB
S1130EA083E0943009F086E00F90DF91CF911F9199
S1130EB00F91FF90EF900895A29FB001B39FC001DE
S1130EC0A39F700D811D1124911DB29F700D811D72
S10D0ED01124911D0895F894FFCF3A
S1130EDA01010101010100000101000000000101FA
S1130EEA00010100010101010100000100010100EA
S1130EFA00010101000101000101010001010101D8
S1130F0A01010101000000000101010101010101C7
S1130F1A01010100010100000101000101010002B7
S1130F2A0101000301010004010100050101000699
S1130F3A0100010001010101010101020101010392
S1130F4A0101010401010105010101060100030077
S10F0F5A0100020000020100020200007D
S9030000FC
