:100000000C942A000C940F020C9435020C945B02A1
:100010000C943F000C943F000C943F000C943F0064
:100020000C943F000C943F000C943F000C943F0054
:100030000C943F000C943F000C943F000C943F0044
:100040000C943F000C943F000C943F000C943F0034
:100050000C943F0011241FBECFE5D8E0DEBFCDBF1A
:1000600010E0A0E6B0E0E4EAF9E002C005900D92ED
:10007000A637B107D9F70E9408020C94D0040C945B
:100080000000853008F087C0683008F086C0423034
:1000900008F085C0813031F138F0823009F440C079
:1000A000833009F45BC07DC0442379F0413009F00E
:1000B0007AC02BB381E090E002C0880F991F6A9547
:1000C000E2F7822B8BBB84E008952BB381E090E0B4
:1000D00002C0880F991F6A95E2F7809582238BBB37
:1000E00084E00895442379F0413009F05EC028B3DC
:1000F00081E090E002C0880F991F6A95E2F7822B99
:1001000088BB84E0089528B381E090E002C0880FA6
:10011000991F6A95E2F78095822388BB84E0089551
:10012000442379F0413009F042C025B381E090E0EA
:1001300002C0880F991F6A95E2F7822B85BB84E085
:10014000089525B381E090E002C0880F991F6A9559
:10015000E2F78095822385BB84E00895442371F003
:10016000413039F522B381E090E002C0880F991F39
:100170006A95E2F7822B82BB84E0089522B381E086
:1001800090E002C0880F991F6A95E2F7809582235C
:1001900082BB84E0089580E0089581E0089582E0C4
:1001A000089584E0089584E0089584E0089584E04B
:1001B000089584E0089585B78C7F826085BF85B7F8
:1001C0008C6085BF84B7806484BF8BB780648BBF2D
:1001D0008BB780688BBF8BB780628BBF0FB607FC75
:1001E00003C08FB780688FBF08951F93CF93DF93AD
:1001F000CDB7DEB729970FB6F894DEBF0FBECDBFDF
:1002000010E084E088C0212F30E0F901EE0FFF1FDD
:10021000EE0FFF1FE05AFF4F4081453008F080C0CD
:10022000F901EE0FFF1FEE0FFF1FE05AFF4F618134
:10023000683008F077C0F901EE0FFF1FEE0FFF1FC7
:10024000E05AFF4F9281923008F06EC0F901EE0F34
:10025000FF1FEE0FFF1FE05AFF4F5381523008F08F
:1002600065C0F901EE0FFF1FE20FF31FA1E0B0E040
:10027000AC0FBD1FEA0FFB1F408361839923F1F090
:100280009130D9F5552361F05130B9F5F901EE0FF0
:10029000FF1FE20FF31FEA0FFB1F83E082832DC0D5
:1002A000F901EE0FFF1FE20FF31F81E090E08C0FCA
:1002B0009D1FE80FF91F82E082831FC0552381F044
:1002C0005130D9F4F901EE0FFF1FE20FF31FA1E047
:1002D000B0E0AC0FBD1FEA0FFB1F82E082830DC0B0
:1002E000F901EE0FFF1FE20FF31F81E090E08C0F8A
:1002F0009D1FE80FF91F83E08283C901880F991FB2
:10030000820F931FA1E0B0E0AC0FBD1F8A0F9B1FAF
:100310000E9481021F5F133008F475CF94E007C07C
:1003200090E005C091E003C092E001C093E084300A
:1003300009F095E0892F29960FB6F894DEBF0FBE1D
:10034000CDBFDF91CF911F910895843008F05AC03E
:10035000623008F059C0613041F590E0FC01EE0FC9
:10036000FF1FEE0FFF1FE05AFF4F2281222381F073
:10037000213009F041C0880F991F880F991FFC0197
:10038000E05AFF4F618141E080810E94410037C007
:10039000880F991F880F991FFC01E05AFF4F618158
:1003A00040E080810E9441002AC090E0FC01EE0FF5
:1003B000FF1FEE0FFF1FE05AFF4F2281222379F02B
:1003C0002130E1F4880F991F880F991FFC01E05A32
:1003D000FF4F618140E080810E94410010C0880F82
:1003E000991F880F991FFC01E05AFF4F618141E07E
:1003F00080810E94410003C084E001C084E0843019
:1004000029F4089587E0089583E0089586E008952B
:100410000E94F5000E944D040E94DB00FFCF1F9256
:100420000F920FB60F9211242F933F934F935F9328
:100430006F937F938F939F93AF93BF93EF93FF93AC
:1004400061E080E00E94A501FF91EF91BF91AF9123
:100450009F918F917F916F915F914F913F912F91DC
:100460000F900FBE0F901F9018951F920F920FB60E
:100470000F9211242F933F934F935F936F937F932A
:100480008F939F93AF93BF93EF93FF9361E081E0CE
:100490000E94A501FF91EF91BF91AF919F918F9124
:1004A0007F916F915F914F913F912F910F900FBE70
:1004B0000F901F9018951F920F920FB60F92112454
:1004C0002F933F934F935F936F937F938F939F935C
:1004D000AF93BF93EF93FF9361E082E00E94A50189
:1004E000FF91EF91BF91AF919F918F917F916F910C
:1004F0005F914F913F912F910F900FBE0F901F90E2
:100500001895FC018081853008F0B7C19181983041
:1005100008F0B5C12281243008F0B3C1813009F45C
:1005200071C038F0823009F4D6C0833009F43CC180
:10053000AAC1213009F44DC0A0F1223019F02330B6
:10054000C9F0A3C14AB321E030E0B90102C0660F8F
:10055000771F9A95E2F7CB01842B8ABB8BB301807E
:1005600002C0220F331F0A94E2F7209528232BBBE9
:1005700084E008954AB321E030E0B90102C0660F7B
:10058000771F9A95E2F7CB01842B8ABB8BB301804E
:1005900002C0220F331F0A94E2F7282B2BBB84E002
:1005A00008954AB321E030E0B90102C0660F771F19
:1005B0009A95E2F7CB01809584238ABB8BB30180A7
:1005C00002C0220F331F0A94E2F7282B2BBB84E0D2
:1005D00008954AB321E030E0B90102C0660F771FE9
:1005E0009A95E2F7CB01809584238ABB8BB3018077
:1005F00002C0220F331F0A94E2F7209528232BBB59
:1006000084E00895213009F44DC0A0F1223019F0A2
:100610002330C9F03CC147B321E030E0B90102C04A
:10062000660F771F9A95E2F7CB01842B87BB88B3BF
:10063000018002C0220F331F0A94E2F7209528237D
:1006400028BB84E0089547B321E030E0B90102C03F
:10065000660F771F9A95E2F7CB01842B87BB88B38F
:10066000018002C0220F331F0A94E2F7282B28BB17
:1006700084E0089547B321E030E0B90102C0660F7D
:10068000771F9A95E2F7CB018095842387BB88B3C7
:10069000018002C0220F331F0A94E2F7282B28BBE7
:1006A00084E0089547B321E030E0B90102C0660F4D
:1006B000771F9A95E2F7CB018095842387BB88B397
:1006C000018002C0220F331F0A94E2F720952823ED
:1006D00028BB84E00895213009F44DC0A0F12230F8
:1006E00019F02330C9F0D5C044B321E030E0B9019E
:1006F00002C0660F771F9A95E2F7CB01842B84BB6B
:1007000085B3018002C0220F331F0A94E2F72095BF
:10071000282325BB84E0089544B321E030E0B901EB
:1007200002C0660F771F9A95E2F7CB01842B84BB3A
:1007300085B3018002C0220F331F0A94E2F7282BF1
:1007400025BB84E0089544B321E030E0B90102C044
:10075000660F771F9A95E2F7CB018095842384BBBF
:1007600085B3018002C0220F331F0A94E2F7282BC1
:1007700025BB84E0089544B321E030E0B90102C014
:10078000660F771F9A95E2F7CB018095842384BB8F
:1007900085B3018002C0220F331F0A94E2F720952F
:1007A000282325BB84E00895213009F44DC0A0F131
:1007B000223019F02330C9F06EC041B321E030E09F
:1007C000B90102C0660F771F9A95E2F7CB01842B1F
:1007D00081BB82B3018002C0220F331F0A94E2F76B
:1007E0002095282322BB84E0089541B321E030E026
:1007F000B90102C0660F771F9A95E2F7CB01842BEF
:1008000081BB82B3018002C0220F331F0A94E2F73A
:10081000282B22BB84E0089541B321E030E0B901E8
:1008200002C0660F771F9A95E2F7CB01809584236B
:1008300081BB82B3018002C0220F331F0A94E2F70A
:10084000282B22BB84E0089541B321E030E0B901B8
:1008500002C0660F771F9A95E2F7CB01809584233B
:1008600081BB82B3018002C0220F331F0A94E2F7DA
:100870002095282322BB84E0089580E0089581E03C
:10088000089583E0089584E0089584E0089584E065
:10089000089584E0089584E008951F93CF93DF9333
:1008A000CDB7DEB729970FB6F894DEBF0FBECDBF28
:1008B00010E084E05DC0212F30E0F901EE0FFF1F52
:1008C000E20FF31FE459FF4F4081453008F055C057
:1008D000F901EE0FFF1FE20FF31FE459FF4F5181A3
:1008E000583008F04CC0F901EE0FFF1FE20FF31F64
:1008F000E459FF4F9281923008F043C0F901EE0FA6
:10090000FF1FE20FF31F61E070E06C0F7D1FE60F29
:10091000F71F40835183992319F0913071F01AC069
:10092000F901EE0FFF1FE20FF31F81E090E08C0F43
:100930009D1FE80FF91F12820DC0F901EE0FFF1F76
:10094000E20FF31F61E070E06C0F7D1FE60FF71FF1
:1009500081E08283C901880F991F820F931F21E0D4
:1009600030E02C0F3D1F820F931F0E9481021F5FFA
:10097000133008F4A0CF93E005C090E003C091E0ED
:1009800001C092E0843009F094E0892F29960FB6D7
:10099000F894DEBF0FBECDBFDF91CF911F910895B8
:0409A000F894FFCFF9
:1009A4000001010000020100000301000302010331
:0609B40003010102010035
:00000001FF
