S0110000496E746572727570742E7372656346
S11300000C942A000C943F010C9465010C946F012C
S11300100C943F000C943F000C943F000C943F0060
S11300200C943F000C943F000C943F000C943F0050
S11300300C943F000C943F000C943F000C943F0040
S11300400C943F000C943F000C943F000C943F0030
S11300500C943F0011241FBECFE5D8E0DEBFCDBF16
S113006010E0A0E6B0E0E6EFF2E002C005900D92E9
S1130070A037B107D9F70E943E010C9479010C9482
S11300800000853008F087C0683008F086C0423030
S113009008F085C0813031F138F0823009F440C075
S11300A0833009F45BC07DC0442379F0413009F00A
S11300B07AC02BB381E090E002C0880F991F6A9543
S11300C0E2F7822B8BBB84E008952BB381E090E0B0
S11300D002C0880F991F6A95E2F7809582238BBB33
S11300E084E00895442379F0413009F05EC028B3D8
S11300F081E090E002C0880F991F6A95E2F7822B95
S113010088BB84E0089528B381E090E002C0880FA2
S1130110991F6A95E2F78095822388BB84E008954D
S1130120442379F0413009F042C025B381E090E0E6
S113013002C0880F991F6A95E2F7822B85BB84E081
S1130140089525B381E090E002C0880F991F6A9555
S1130150E2F78095822385BB84E00895442371F0FF
S1130160413039F522B381E090E002C0880F991F35
S11301706A95E2F7822B82BB84E0089522B381E082
S113018090E002C0880F991F6A95E2F78095822358
S113019082BB84E0089580E0089581E0089582E0C0
S11301A0089584E0089584E0089584E0089584E047
S11301B0089584E00895853008F05AC0623008F04C
S11301C059C0613041F590E0FC01EE0FFF1FEE0FC6
S11301D0FF1FE05AFF4F2281222381F0213009F0D2
S11301E041C0880F991F880F991FFC01E05AFF4FE7
S11301F0618141E080810E94410037C0880F991FCE
S1130200880F991FFC01E05AFF4F618140E0808113
S11302100E9441002AC090E0FC01EE0FFF1FEE0F88
S1130220FF1FE05AFF4F2281222379F02130E1F4AD
S1130230880F991F880F991FFC01E05AFF4F6181B5
S113024040E080810E94410010C0880F991F880FF0
S1130250991FFC01E05AFF4F618141E080810E94B7
S1130260410003C084E001C084E0843029F408958F
S113027087E0089583E0089586E00895FFCF1F92F4
S11302800F920FB60F9211242F933F934F935F93C6
S11302906F937F938F939F93AF93BF93EF93FF934A
S11302A061E080E00E94DB00FF91EF91BF91AF918C
S11302B09F918F917F916F915F914F913F912F917A
S11302C00F900FBE0F901F9018951F920F920FB6AC
S11302D00F9211240F900FBE0F901F9018951F922C
S11302E00F920FB60F9211240F900FBE0F901F9014
S10902F01895F894FFCFFD
S11302F600010100010300000205010103070001DA
S9030000FC
